:020000040000fa
:080000000002040000000000f2
:020000040000fa
:100400000fa220000eff27000e0188000000000050
:100410000c00070060152100010020000f000700fc
:10042000000020000000e000020032000000020096
:100430000000000028110200000000000040da0067
:100440000000fe00000c20000000e000020032006e
:10045000002020009001880000000600a102880012
:10046000800078000000eb001a003700e2804000b6
:1004700054a0b4009101ba00e280400054a0b4003e
:100480009102ba00e280400054a0b4000002eb00e8
:10049000472bde00f507b200a6018800602ce100c2
:1004a00008003a000049eb000201e80002003900b0
:1004b0003420ec0002f0a0008301e900f9ff3e00c7
:1004c000040037006128e100010032000082eb00e7
:1004d000040007001101ba000200e000e3ff3a0047
:1004e0000000060004d0a300e20f49001c00390000
:1004f000810278003549ba000201e80002003900a3
:100500003420ec0002f0a0008301e9000f0032006b
:100510002549ba000201e800020039003420ec004d
:1005200002f0a0008301e900080032000400e000ae
:100530000600320015c9ba000201e80002003900c5
:100540003420ec0002f0a0008301e9008180e80083
:1005500054a0b4000300e000e2ff3a0000000600ef
:100560009102ba00055978008301e900f7ff3200d3
:10057000c82ade00055978008301e900f3ff320044
:100580000400e000f1ff320011d9ba00eeff37009d
:100590000040da000000fe008001eb00020037009e
:1005a000817178008301e800828f5100fcff3a00de
:0405b0000000060041
:020000040000fa
:020000040005f5
:0457f8009e1b0000f4
:020000040000fa
:020000040005f5
:0457fc007f3e0000ec
:020000040000fa
:10000800c8020000c8020000c8020000c8020000c0
:10001800c8020000c8020000c8020000c8020000b0
:10002800c8020000c8020000c8020000c8020000a0
:10003800c8020000c8020000c8020000c802000090
:020000040000fa
:10037800c8020000c8020000f2100000c802000015
:10038800c8020000c8020000c8020000c80200003d
:10039800c8020000c8020000c8020000c80200002d
:1003a800c8020000c8020000c8020000c80200001d
:1003b800c8020000c8020000c8020000c80200000d
:1003c800c8020000c8020000c8020000c8020000fd
:1003d800c8020000c8020000c8020000c8020000ed
:1003e800c8020000c8020000c8020000c8020000dd
:0803f800c8020000c802000069
:020000040000fa
:1005b4005a83000026830000008300005e8300004d
:1005c40006000000ff09000001a10000011900005d
:1005d400012900004015000000260000ff00000073
:1005e400750800009540000081000000190100001a
:1005f4002940000091000000c00000002603000014
:1006040055000000530000004200000020000000dc
:1006140048000000490000004400000020000000e1
:10062400420000006f0000006f0000007400000032
:100634006c0000006f000000610000006400000016
:100644006500000072000000340300004d0000004b
:100654006900000063000000720000006f000000e9
:1006640063000000680000006900000070000000e2
:10067400200000005400000065000000630000003a
:10068400680000006e0000006f0000006c000000b5
:100694006f000000670000007900000020000000e7
:1006a400490000006e000000630000002e000000fe
:1006b40004030000090400000902000029000000ee
:1006c4000101000000c00000320900000400000025
:1006d40000020000030000000000000009210000e7
:1006e4001101000000010000221d000000070000ad
:1006f4000581000003400000000100000705000020
:10070400010300004000000001000000120100008d
:10071400100100000000000000080000d8040000e0
:100724003c00000002000000010200000001000083
:020000040000fa
:100734009ec0a9008ea4ef008aa4ef00aa24ef00b3
:10074400ac24ef002000200030258800a824ef000e
:100754008644a900f00920008024880060248800d1
:100764008804a80001a020004808de00c0248800f6
:100774000000eb008018eb008018eb000000e8009c
:10078400e80f5000fbff3a009424a8009624ef00e1
:1007940094a4a9009424a90000017800070037005c
:1007a400522488004a69ef003e69ef003fc9bf0048
:1007b4003f69ef0040c9bf004069ef008ac4bf0031
:1007c400e8406000f6ff3a0010c0b30021e9b7002a
:1007d40020e9b7008000fd004ee9b70050e9b700fa
:1007e40046e9b7008000fd000000eb0044932000c0
:1007f40082932000800078005592200033922000dc
:10080400001aeb000019eb0001f07a0001f0790006
:100814000000e800e20f5000f9ff3a0080a0200039
:10082400a0498800d0002000502588008091200035
:100834001050880080c0b30000eab70040c0b30085
:1008440001eab70001eaa8004369ef004429ef0078
:10085400000006002149e2002e003a0010c0b30057
:1008640021e9b70001922000914078000104e000e2
:1008740028003a0020e9b7002cc9bf00e24f50001d
:100884000a003a00a04980000148780081c4b300fe
:10089400a049800011409800a149800011409000b7
:1008a4000074a0009040980000000600c49220004c
:1008b40014427800e14f520016003a00010078001b
:1008c40027e9b70083c0b30080498000034878005b
:1008d40081498000829120009200980040c0b300ba
:1008e4009040980081498000114090000074a0005d
:1008f400904098000400780027e9b7007049800010
:1009040003487800714980009200980000c8b30041
:1009140090409800000006000080fb008001400029
:100924000180fb00008041004300dd0002a02000a4
:1009340002014000124090000074a1001041980090
:10094400809320000104e000010032004093200065
:1009540082317800124090000064a1001041980098
:10096400e4004100114090000064a0009040980011
:1009740000000600889fbe008a1f780000447800ab
:10098400014578008184fb000938a300020032008d
:100994008040eb00e0ff07000928a30003003200b9
:1009a40011c0b30008407800dbff07000880fb009b
:1009b40000004000a14a20000af078004f057800aa
:1009c4004f04be0000000600004378008082fb0054
:1009d400814378000104e000030032008580420076
:1009e400409320000200370085804200809320005d
:1009f400610278000400e00002003a00040078007c
:100a0400000006008682fb0012029800034a780068
:100a1400144090000044b20010429800144090002a
:100a24000034a00010429800144090000074a0000c
:100a3400104298000704e0000300320005804200e1
:100a4400419320000200370005804200819320007a
:100a5400010040001024a2000400780000000600f9
:100a6400014178000004e00012003a0081c0b300a4
:100a7400704980000148780071498000809120000d
:100a840090009800c0c0b300904098007149800065
:100a9400114090000074a0009040980041c0b30041
:100aa400a049800011409800a149800011409000a5
:100ab4000f0037008080fb00818040000280fb0033
:100ac40080804000c308dd0002a0200002814000b5
:100ad400124090000024a0000074a000104198006f
:100ae40040a0200080804000114090000024a0001d
:100af4000074a00090409800000006008040780038
:100b040094c4bf000058a300180032000181fb0008
:100b1400020141004093200000014100920178004d
:100b24001300be0004042000000062000100200045
:100b34008089be009201780000042000010020009a
:100b440093196800939168001224a200920078001f
:100b5400114090000044b200904098009200780048
:100b64001140900004406800904098000000060086
:100b74000000eb00a024880060248800204a88003c
:100b840000000600214a80000100e00011003a0044
:100b9400a1248800612488002000200030258800da
:100ba400412588008644a900f0092000802488009b
:100bb400602488009ec0a800010037009404a800a7
:100bc40094c4bf000008a300fcff32001000200002
:100bd400204a880000000600604a800083c0b300f9
:100be400e70f50000a003e00604a80008041780010
:100bf40010c0b3002d49e200040032002dc9bf002b
:100c0400e14f500002003a0020c0b3002de9b700c4
:100c14000380fb004c29b500a049800003487800fc
:100c240000912000504988004ac9bf000008a30071
:100c340002003200034178001200370003417800bb
:100c44008041eb000600370050498000414a800093
:100c54003158780050498800414a88000241e9002f
:100c6400834f5100f8ff3a0000000600504980000d
:100c7400414a80003158780050498800414a880030
:100c84000241e9000204e000f8ff3a000000060017
:100c94004e69ef005069ef002cc9bf00e24f5000cd
:100ca4000a003a0081c0b30070498000014878000e
:100cb40071498000009120009000980080c4b30026
:100cc4009040980071498000180037001ec9bf0089
:100cd4000080fb00f191200091407800c808dd00fd
:100ce40080807000604a8000808f500007003100cf
:100cf400e1912000914078008180fb001fc9bf0072
:100d04004800dd0001007000604a8800b2ff07005f
:100d140001912000a04980001100980081c4b30013
:100d2400a049800011409800a14980001140900022
:100d34000074a00090409800000006000200fa0031
:100d4400889fbe008a1f7800204a8000e10f50006f
:100d540008003a0094c4bf000068a30005003a00ec
:100d64008aa4ef008c04a8008c84a8002000200032
:100d7400204a880080c4bf000048a3000c00320051
:100d840082c4bf000048a30009003200080120000b
:100d9400082488004669ef000001eb008000eb00a6
:100da40040072000370507008284a9000824880032
:100db40088c4bf000018a30005033a008ac4bf001a
:100dc4000008a300090032008cc4bf000008a3007f
:100dd4000600320056fe07009ec0a8004000200016
:100de400204a880010002000502488008ac4bf00d4
:100df4000048a3000d0032008cc4bf000048a300cb
:100e04000a0032008284a8000801200058248800c7
:100e140010c0b30046e9b7000001eb008000eb000e
:100e24005007200017050700582488008ac4bf0013
:100e34000028a3000f0032008cc4bf000028a300c8
:100e440004003200120020008000eb003007200074
:100e54000c05070040002000502488002249e200cd
:100e6400010032002269ed002249e20001003a004b
:100e740078fe07008a44e20018003d008c44e2003a
:100e840016003d00aac4bf000018a30011003200e0
:100e9400824980009241900000c8b30080cf510085
:100ea4000b003a00a04980009040900040c8b30075
:100eb40080cf500006003a00c0c0b3001041980033
:100ec40081498000114090000340700090409800d8
:100ed400aa24a90000082000502488008ac4bf0066
:100ee4000018a3000a0032008cc4bf000018a3003d
:100ef40007003200120020008000eb00f0ff270002
:100f0400e00407008ea4ef00200020005024880095
:100f1400204a8000e30f5000ad0236008cc4bf00ad
:100f24000038a300aa0232000045eb008ac4bf00c7
:100f34000038a300a60232009024800029e9b700fb
:100f440029c9bf000080fb004400de0028e9b70087
:100f5400800020005024880029c9bf000038a30065
:100f640004003a0028c9bf000080fb003192200031
:100f74000300370028c9bf000080fb005192200005
:100f84000100400010417800e14061000104a2002a
:100f94001004a10010c870002849e20085023a003c
:100fa400d0c2b30022e9b70029c9bf00800178008c
:100fb400b30fb2003f023a0029c9bf00c00fb2000c
:100fc40001a0200001014000824988007249880084
:100fd4002e49aa0012409000c043b20041c3b3009e
:100fe400814f5000bb013a008200780082912000ba
:100ff400110090001040780000f179001100900079
:101004000000e800900098008301e800e88f510098
:10101400f7ff3a00920098002d69ef004f69ef0046
:101024004e69ef005069ef002769ef002c69ef006b
:10103400a1498000114090000074a10090409800e4
:101044003449aa00a1498000114090000074a10015
:10105400904098003449aa007149800011409000e2
:101064000074a100904098004a69ef004c29ef00f9
:101074003e69ef003fc9bf003f69ef0040c9bf00b0
:101084004069ef0018c9bf000046b2004f013a00a2
:1010940019c9bf000080fb0001002000eb0f5000c5
:1010a400e08f580049013e000060010064003700f1
:1010b40090003700450137008e00370043013700a8
:1010c40006003700080037003c0137005a0037009b
:1010d4003500370028013700310137004ae9a800fc
:1010e400800020004c00370081912000914078005e
:1010f40000c8b30080cf500034013a0000ccb300e4
:101104004ae9b7001bc9bf00e24f50000800320093
:10111400e34f500015003200e14f500020003a0028
:1011240080382800404a8800200120001a00370037
:101134001a49e2001a003a001ac9bf000080fb00f5
:1011440000004000012e280060807800404a88009a
:10115400404a8000204090004ce9b700404a80009b
:10116400304090004de9b700180137001ac9bf009c
:10117400e24f50000a003e001ac9bf000080fb0085
:1011840000004000a12d280060807800404a8800bb
:10119400404a80001080fb00604a88000b01370041
:1011a4004a69ef00090137004ae9a800ac24ef00be
:1011b400020220008000eb0000a02000f5fc0700e4
:1011c4009424a8000000eb00539220008040780093
:1011d4003292200001f07900017079000000e800eb
:1011e400e20f5000fbff3a003269ef009424a9009b
:1011f40080a02000a049880000a020008049880029
:10120400704988001ac9bf0043e9b7004349e200a6
:1012140003003a0000012000204a8800eb00370058
:101224001200200031942000100020001504070053
:1012340000022000f8ff370030942000d20037006d
:101244001069ef001169ef0018c9bf007f0060004a
:10125400e10f50000a003200e20f50000a00320091
:101264000000e0001b003a004ae9a80047c9bf009b
:10127400e14f500017003a001029a800150037006c
:101284004ae9a800130037004ae9a8001c49e20013
:10129400050035001cc9bf006f006000000040005d
:1012a40081932000040037001cc9bf006f00600058
:1012b4000000400041932000608078000140280035
:1012c40010806000810f500002003a0010c0b3008b
:1012d40010e9b7004a49e200bc003d00009120003b
:1012e400404a88004a09a80020c0b3004ce9b7006e
:1012f400b6003700a291200012417800e14f51005e
:101304000c003a0018c9bf00ff40600009003a0011
:101314004ae9a80019c9bf00e34f500003003a008e
:101324000200780047e9b7000200370001007800a6
:1013340047e9b7001a49e200a4003a0018c9bf00ff
:101344007f406000e24f5000a0003a001cc9bf007b
:101354006f4060009d0032001cc9bf006f00600038
:10136400e10f500099003c00214a80000002200057
:10137400808f500095003a004ae9a8001c49e20019
:101384000a0035001cc9bf006f0060000000400067
:1013940081932000e0807800c1bf9f001cc9bf007a
:1013a4006f00600031922000090037001cc9bf00a3
:1013b4006f0060000000400041932000e08078004e
:1013c400c1bf9f001cc9bf006f0060005192200084
:1013d40060c478000808a30004003a000ff99700dd
:1013e4000224a10082ff9f00030037000ff897003a
:1013f4000024a00080ff9f001c49e2000500350086
:101404001cc9bf006f0060000000400081932000f1
:10141400040037001cc9bf006f00600000004000da
:10142400419320004fb9970002b0780019c9bf005a
:10143400e34f500017003a004fb897001000e00047
:101444000b003d001c49e200040035001cc9bf002c
:101454006f00600031922000030037001cc9bf00f8
:101464006f00600051922000010040001014a000a1
:10147400cfb89700114090000024a000904098003d
:10148400cfb89700114090000074a00090409800dd
:101494004e003700e88457000ff897000024a2009c
:1014a40080ff9f00cfb89700114090001100e0002a
:1014b4000b003d000074a10090409800cfb8970045
:1014c400114090000064a000904098002200200089
:1014d400cfb89700500020006a03070002003700cd
:1014e4000064a000904098001924a2000818a300ea
:1014f40003003a00cfb897001100e00014003d004b
:101504001c49e200040035001cc9bf006f006000e4
:1015140031922000030037001cc9bf006f00600037
:1015240051922000010040001014a100cfb8970090
:1015340011409000b043b200904098002200200077
:10154400cfb89700500020004e0307000300370077
:1015540011409000b043b200904098001cc9bf00f5
:101564006f00600000004000a14a2000010040001c
:101574001014a100150037001cc9bf000080fb0037
:101584002193200001004000404a88004a09a80035
:1015940010c0b3004ce9b7004ae9a8000b003700bb
:1015a4004ae9a8001cc9bf000080fb002193200069
:1015b400a291200012f07800040037000001eb0033
:1015c4008000eb00200020002e0307000001eb0048
:1015d4008000eb00300020002a03070094a4a90037
:1015e4004ac9bf0001c8b3000144600019003a00b1
:1015f4003e49e2000a003d0020c0b3002ce9b700d8
:101604005049e20001003a00a1fd07000004fd007a
:1016140020e9b70021e9b7000004fd00e900370024
:1016240081c0b3007049800001487800714980008e
:101634008091200090009800c0c0b30090409800b2
:1016440071498000114090000074a00090409800ff
:10165400b600370018c9bf0001416000080032001d
:1016640010c0b3002ce9b7004e49e20001003a0073
:1016740087fd07002069ef002169ef0012003700a1
:1016840020c0b3002ce9b70081c0b30070498000ca
:1016940001487800714980008091200090009800f2
:1016a40040c0b30090409800714980001140900000
:1016b4000074a000904098000001fd0020e9b700ec
:1016c40021e9b7000001fd004f49e200bd003a00e6
:1016d400650037002cc9bf00e24f500064003a0097
:1016e400124278003fc9bf000080fb000194200033
:1016f40091407800c808dd00808070000480fb0001
:10170400810f5000040036003fc9bf00019420003f
:101714009140780000427800f193200091407800d5
:101724008180fb0040c9bf004800dd00010070005b
:101734008480fb0001005000f19320009140780068
:101744003fe9b7004800de00019420009140780092
:1017540040e9b7000591200010003700c193200034
:10176400914078008180fb003dc9bf004800dd0046
:10177400010070008280fb0061d87a00c1932000d0
:10178400914078003ce9b7004800de00d193200086
:10179400914078003de9b7008301e80003417800f7
:1017a40084cf5100edff390072498000f19320008d
:1017b400914078008180fb0040c9bf004800dd00f3
:1017c400010070000d00320083c0b30003497800ab
:1017d40071498000009120009000980080498000a9
:1017e400104090000068a30002003a0080c4b300d7
:1017f4002a003700934098002900370080c0b300c6
:101804000049780071498000809120009000980080
:1018140040c0b3009040980071498000114090008e
:101824000074a0009040980011942000914078002a
:101834008180fb0042c9bf004800dd000100700048
:101844000700320011942000914078008180fb0051
:1018540042c9bf004800dd00010070000000010023
:101864003ee9a90098ff3700fafb0700550037004e
:10187400030078002ce9b7002749e2000a003a0087
:1018840081c0b3007049800001487800714980002c
:101894008091200090009800c0c0b3009040980050
:1018a400714980002c0037000300780027e9b70055
:1018b4004400370029c9bf00b00fb200e80f500040
:1018c40040003a00a0498000104090004600de002d
:1018d400610460003449aa00204a8000e80f5000e7
:1018e40008003a001ac9bf00f007b200b02488000b
:1018f400000120009604e20001003a0040002000ac
:10190400204a88002cc9bf00e14f500016003a005d
:1019140000912000a149800090009800aefc0700cf
:101924002dc9bf00e24f500004003a0041c0b3008b
:10193400a04980001140980006003700a1498000aa
:1019440080c4b3000804e0000100320080c0b3008a
:1019540090409800a1498000114090000074a000bc
:1019640090409800170037003e49e2000f003d0008
:1019740011942000914078008180fb0042c9bf008f
:101984004800dd00010070000700320011942000bf
:10199400914078008180fb0042c9bf004800dd000f
:1019a40001007000000001003ee9a9002c69ef006d
:1019b400040037000001eb00919220002007200072
:1019c400300207000a45e800e44f550057fd3a008d
:1019d4008ec0a9004f0578004f04be000080fa00b5
:1019e40000000600889fbe000004eb00b84a88008f
:1019f400a84a880090cab3004ee8b70000802a00c5
:101a040050428800200020006042880019c0b300c2
:101a14000900780000e8b7000800780049e8b7003a
:101a240002a8ef0004a8ef000800780006e8b70059
:101a3400d1c1b30009407800cefb070003c4b30052
:101a4400f28420008840780009407800defb07001b
:101a5400b04a88004f04be000000060048c8bf001a
:101a64000080fb00010020004a09dd00c600de0002
:101a7400810071004a00dd0022042400023b88003a
:101a84000181fb00a20288000081eb000208bb0078
:101a94001000fc0050052000303b8800a00a200004
:101aa400303b880061e7a80000000000000000004f
:101ab4006147e200feff350000000600300024000c
:101ac400003b880083802000144080002540800073
:101ad400140037000080fb000100200000005200c9
:101ae40081805a00a10288001308bb0013019000f2
:101af4000288bb001000fc0050052000303b880029
:101b0400a00a2000303b880061e7a8000000000024
:101b1400000000006147e200feff350006e8ed002a
:101b2400e481410006c8bf00eaff3a0061c7a9008a
:101b3400000006000400fa00e0bf9f00f1bf9f0010
:101b4400a10280007fb89700a00288006fb89700b8
:101b54009081ba001001ba00a10288000200be0000
:101b64000080fa0000000600881f78004948e2005f
:101b740022003a00a04a80000000e0000300320086
:101b8400104090000004e00036013500b04a8000a7
:101b94000000e00003003200104090000004e00068
:101ba400300135000000eb00f38c2000f2842000ab
:101bb40001042000e27178000000e800810f500069
:101bc400fcff3a0003c4b300f28420008040eb0021
:101bd40010c0b3007cfb0700b04a880010c0b300fb
:101be40049e8b700f0882000f18c20000058eb0091
:101bf400810f50001b013200fcff3700f38c2000e2
:101c040093417800e5cf51006800320006003e00a1
:101c1400e3cf51004200320054003e00e2cf5100b5
:101c240010013a0006003700e7cf5100b10032003e
:101c3400ac003900e8cf51000a013a000301370033
:101c4400030078008fe8b70080c3b30090e8b700c2
:101c54000300780091e8b70014c0b30004007800d2
:101c640092e8b7009368ef0080c1b30094e8b7002e
:101c74009568ef009668ef0000802e00f1ff2f00ba
:101c8400564280006742800006004000878048007a
:101c940097e8b7004801de000200780098e8b70032
:101ca4000100780099e8b7004808de009ae8b70018
:101cb4009be8ef000048e2000f003a0030c0b30098
:101cc4009be8b70080cfb3009ce8b700b0cab3006c
:101cd4009de8b700030078009ee8b7009f68ef0016
:101ce40080c0b300a0e8b700a168ef00a268ef00cd
:101cf400a368ef00a4e8ef00a04a80000000e00021
:101d040003003200104090000004e000d5003500cc
:101d140003c4b300f288200084407800c600370072
:101d2400d048e20008003a00a0cab3004ee8b70069
:101d340087bf2a0057428800270020006742880096
:101d44000068ef00bf00370090cab3004ee8b70048
:101d540000802a0050428800200020006042880051
:101d640010c0b30000e8b700b600370060c0b3008d
:101d740048e8b7000300370038ff0700effb07000f
:101d84004868ec0081842000914078008180fb0049
:101d94004ec8bf000080fb000000e800808f5000a8
:101da400f5ff350061c7a900a60037001040800088
:101db40021408000e10f4000e08f48000e003a000f
:101dc400018d2000914078008180fb00d1c8bf00c4
:101dd4004800dd0001017000218d20009140780051
:101de4008180fb00d3c8bf004800dd008101700082
:101df4001240880023408800018d20009140780023
:101e04008180fb00d1c8bf004800dd0001017000e3
:101e1400218d2000914078008180fb00d3c8bf0051
:101e24004800dd00810170000004eb0010408000d8
:101e340021408000820f5000838f5800220032001e
:101e44008000370064802000144278008481fb0005
:101e54008381410080032000010050002200200003
:101e6400110009000200d8008580fb000100400039
:101e740000004000718d2000010040009080fb00b4
:101e8400104090004800dd000100700081802000b7
:101e940080b178000442e8000400780006e8b70046
:101ea400164080002740800061034300e0834b001c
:101eb4001640880027408800fc4f520001003a0079
:101ec400fefe07000804e80088427800d4c8bf007a
:101ed4008080fb000100d100804f5400d9ff3900fd
:101ee40058003700f5fe070002a8ef0004a8ef0031
:101ef40054003700a04a80000000e00003003200d4
:101f0400104090000004e000560035000300780003
:101f14008fe8b700018d2000914078008180fb009c
:101f2400d1c8bf004800dd0001017000218d2000f0
:101f3400914078008180fb00d3c8bf004800dd00d9
:101f4400810170000200780090e8b7004810de00bc
:101f540091e8b7000300780092e8b7004818de0063
:101f640093e8b700d4c8bf0094e8b7000044eb007e
:101f740029003700038d2000934178008381fb0002
:101f8400128d2000124178004811dd000300710019
:101f9400238d2000934178008381fb00328d200043
:101fa400124178004811dd00830071000881fb00b4
:101fb400030020000000410081804900ddfe07008d
:101fc4008881fb00428d2000124178000281fb00d1
:101fd4000201d1008281510083814100020420006a
:101fe40003014100f5882000050141000049780003
:101ff4004802de001441980081037800f70fb20014
:102004002304b00085814100874978004838de0008
:102014009041980008c4e800d4c8bf000080fb00c9
:102024000000d100804f5400d2ff390003c4b30034
:10203400f288200011c0b3000140780062fa070062
:10204400a04a88004968ef00060037009424ef0096
:102054000080eb00000000000000e900fdff3a00f2
:102064000000fe004f0478000000060018c9bf00fd
:102074007f406000e14f500042003a001c49e200fa
:1020840040003a0019c9bf00e64f500016003a005c
:10209400b1912000914078007b40400080cf5000f7
:1020a400040032000040e80080cf50000e003a00e7
:1020b4000700370043c9bf00e14f50000a003a004f
:1020c40000372800404a88009000200003003700b1
:1020d400202e2800404a8800d0012000604a880051
:1020e40000ccb3004ae9b70018c9bf000046b200eb
:1020f40001c2b300814f500022003a0019c9bf0049
:10210400e34f50001400320003003e00e24f500041
:102114001c003a0005003700ea4f50000900320065
:10212400eb4f500017003a00120037009095200042
:10213400404a880010002000604a880010ccb30098
:102144000a00370000c8b3004ae9b7001bc9bf0042
:1021540059e9b7000000060080952000404a880035
:1021640010002000604a880010c8b3004ae9b70094
:102174000000060000c8b3004ae9b7001ac9bf004e
:1021840058e9b70000000600e224ef00e424ef0061
:10219400e624ef00ea24ef00ec24ef0044a7a800b3
:1021a400812520008100e900e18f4000fdff3a0015
:1021b4000000e00009003a0083e0a80010002000bd
:1021c40055000700160007000004e00003003a0071
:1021d40083e0a900001804000000000000000600cd
:1021e4003600f800809fbe00829fbe00849fbe0020
:1021f400869fbe003200f800002020009001880075
:10220400cefa07003200f9004f03be004f02be00b1
:102214004f01be004f00be003600f900004006002a
:10222400e224ef00c8c2a8006ec0a800cac2bf0062
:102234006ec0a9008000eb000068a30001003a0012
:1022440011002000010078000000060010002000aa
:10225400310007000000eb00cbff070034f9070052
:1022640048fa0700204a8000ff0f5000fdff3600a7
:1022740088c4bf000018a300faff3a003afe070022
:10228400f8ff3700e10f500003003200e30f500065
:1022940004003a0002003700d2fd070001003700b5
:0822a40072ff070010000500a5
:020000040000fa
:1022ac00520900000600000082000000010000003e
:1022bc000000000000080000100100008000000079
:1022cc00100900004200000080000000000a00001d
:1022dc0020000000800000005809000002000000ef
:0822ec0080000000000000006a
:020000040000fa
:1022f4008000eb00e10f500005003a00cac2bf00a5
:102304000080fb004600de000000a200e100600047
:102314000100780000000600e10f500003003a00bd
:10232400c8c2a800e2c4a900e224ef00000006002d
:00000001FF
