:020000040000fa
:080000000018040000000000dc
:020000040000fa
:1000080012190000d2180000da180000e2180000e7
:10001800ea18000012190000121900001219000055
:10002800121900001219000012190000121900001c
:10003800121900001219000012190000121900000c
:1000480012190000121900001219000012190000fc
:1000580012190000121900001219000012190000ec
:1000680012190000121900001219000012190000dc
:1000780012190000121900001219000012190000cc
:1000880012190000121900001219000012190000bc
:1000980012190000121900001219000012190000ac
:1000a800121900001219000012190000121900009c
:1000b800121900001219000012190000121900008c
:1000c800121900001219000012190000121900007c
:1000d800121900001219000012190000121900006c
:1000e800121900001219000012190000121900005c
:1000f800121900001219000012190000121900004c
:10010800121900001219000012190000121900003b
:10011800121900001219000012190000121900002b
:10012800121900001219000012190000121900001b
:10013800121900001219000012190000121900000b
:1001480012190000121900001219000012190000fb
:1001580012190000121900001219000012190000eb
:1001680012190000121900001219000012190000db
:1001780012190000121900001219000012190000cb
:1001880012190000121900001219000012190000bb
:1001980012190000121900001219000012190000ab
:1001a800121900001219000012190000121900009b
:1001b800121900001219000012190000121900008b
:1001c800121900001219000012190000121900007b
:1001d800121900001219000012190000121900006b
:1001e800121900001219000012190000121900005b
:0801f8001219000012190000a9
:020000040000fa
:1002080012190000f2180000fa1800000219000084
:100218000a19000012190000121900001219000032
:10022800121900001219000012190000121900001a
:10023800121900001219000012190000121900000a
:1002480012190000121900001219000012190000fa
:1002580012190000121900001219000012190000ea
:1002680012190000121900001219000012190000da
:1002780012190000121900001219000012190000ca
:1002880012190000121900001219000012190000ba
:1002980012190000121900001219000012190000aa
:1002a800121900001219000012190000121900009a
:1002b800121900001219000012190000121900008a
:1002c800121900001219000012190000121900007a
:1002d800121900001219000012190000121900006a
:1002e800121900001219000012190000121900005a
:1002f800121900001219000012190000121900004a
:100308001219000012190000121900001219000039
:100318001219000012190000121900001219000029
:100328001219000012190000121900001219000019
:100338001219000012190000121900001219000009
:1003480012190000121900001219000012190000f9
:1003580012190000121900001219000012190000e9
:1003680012190000121900001219000012190000d9
:1003780012190000121900001219000012190000c9
:1003880012190000121900001219000012190000b9
:1003980012190000121900001219000012190000a9
:1003a8001219000012190000121900001219000099
:1003b8001219000012190000121900001219000089
:1003c8001219000012190000121900001219000079
:1003d8001219000012190000121900001219000069
:1003e8001219000012190000121900001219000059
:0803f8001219000012190000a7
:020000040000fa
:103000000fe120000ebf25000e0188000000000027
:10301000000020000000e00002003200000120005b
:10302000200288000c000700001b22000100200085
:103030000f000700000020000000e0000200320046
:1030400000000200000000006421020000000000f7
:103050000040da000000fe00200020000000e00038
:1030600002003200100020009001880000000600dd
:10307000a1028800800078000000eb001a003700f1
:10308000e280400054a0b4009101ba00e280400008
:1030900054a0b4009102ba00e280400054a0b400f1
:1030a0000002eb00472bde00f507b200a601880006
:1030b000602ce10008003a000049eb000201e80042
:1030c000020039003420ec0002f0a0008301e90086
:1030d000f9ff3e00040037006128e10001003200e2
:1030e0000082eb00040007001101ba000200e000ba
:1030f000e3ff3a000000060004d0a300e20f4900fd
:103100001c003900810278003549ba000201e8004c
:10311000020039003420ec0002f0a0008301e90035
:103120000f0032002549ba000201e8000200390010
:103130003420ec0002f0a0008301e9000800320016
:103140000400e0000600320015c9ba000201e800e0
:10315000020039003420ec0002f0a0008301e900f5
:103160008180e80054a0b4000300e000e2ff3a00d0
:10317000000006009102ba00055978008301e900b9
:10318000f7ff3200c82ade00055978008301e90004
:10319000f3ff32000400e000f1ff320011d9ba0061
:1031a000eeff3700801f78000000fa008020a900a1
:1031b000ffff3700801f78000000fa008060a90040
:1031c000ffff3700801f78000000fa008040a90050
:1031d000ffff3700801f78000000fa008080a90000
:1031e000ffff3700801f78000000fa008020a90050
:1031f000ffff3700801f78000000fa008060a90000
:10320000ffff3700801f78000000fa008040a9000f
:10321000ffff3700801f78000000fa008080a900bf
:0c322000ffff37000000fa00ffff37003e
:020000040000fa
:10322c00e224ef00e424ef00e624ef00ea24ef00b0
:10323c00ec24ef00d6190200000000008180200071
:10324c0000102000a0028800c0b521000303090073
:10325c00b018ba00000000000627af00feff3700d0
:10326c00f0ff2f000038880000002500103888007f
:10327c00000000000627af00feff37000000200012
:10328c00003888000010250010388800000000006d
:10329c000627af00feff3700808020000038880032
:1032ac000020250010388800000000000627af0021
:1032bc00feff370000002000003888000080250049
:1032cc0010388800000000000627af00feff370012
:1032dc00001e2000003888008092250010388800dd
:1032ec0010002000204088000628ef000028ef0086
:1032fc000228ef00cde2ee00c962ec000028ec00e1
:10330c0001003a000228ec000c1b02000000000037
:10331c0080017800010178000c1b02000000000005
:10332c00f00fb200f11fb200f207b2000205b000bc
:10333c00f307b2001300b000044080003400b20068
:10334c00441a020000000000000000000627af0035
:10335c00feff3700601d2e0000388800b0a025004d
:10336c00103888000120200080b32900881a020040
:10337c000000000010408000aa1a020000000000ab
:10338c0000408000aa1a020000000000012020006a
:10339c00e0b42900881a020000000000d5ff3700b5
:1033ac0000c02500c038880060388800803888004c
:1033bc001a27ef000e27ef001227ef00f0ff2f0067
:1033cc00f03988004487a80000602100303a88005a
:1033dc0000282000e038880000282000a038880051
:1033ec00001e2000f0388800001e2000b038880035
:1033fc000032200000398800d020200010398800cd
:10340c00000620002be7b700000020002ae7b700d9
:10341c00200020002de7b700000020002ce7b700ab
:10342c00a00020002fe7b70029e7b70050082000c4
:10343c002ee7b70028e7b7000002200020388800ec
:10344c0010022000203988003030200030398800ec
:10345c0005e7a800803e09000000000000002000e5
:10346c0001002000021e2000032820000400200080
:10347c00441a0200000000000000060000000000da
:10348c000627af00feff37000438880004602600d2
:10349c0014388800000000000627af00feff37003c
:1034ac004c1add000202420004388800c419de0008
:1034bc0004402600048241001438880000000000fb
:1034cc000627af00feff3700022820000011b800cd
:1034dc0081004100013888000130260081804100c4
:1034ec0011388800000000000627af00feff3700ef
:1034fc000006200000388800007026001038880074
:10350c00000006003200f80091018800b080fb003a
:10351c000b003200000000000627af00feff370052
:10352c000138880001302500113888000000e000c7
:10353c00f6ff3a00000028003220ec00f3ff3700c1
:10354c003200f90000000600811f78000000000026
:10355c000627af00feff3700cc00de006a08e10052
:10356c00010039007100b0000103b000013888007f
:10357c000130250011388800000000000627af003c
:10358c00feff3700c800de00f100b2006a08e1005f
:10359c00010039007100b0000103b000013888004f
:1035ac000130250011388800000000000627af000c
:1035bc00feff3700c400de00f100b2006a08e10033
:1035cc00010039007100b0000103b000013888001f
:1035dc000130250011388800000000000627af00dc
:1035ec00feff3700ef0060006a08e10001003900bf
:1035fc007100b0000103b0000138880001302500d3
:10360c0011388800cf00780000000600821f780077
:10361c00831f78008c1f7800701a24006c802000a7
:10362c002c01b8001c00b8000201d0008381d2002c
:10363c000201d100030048008100490003003b0057
:10364c0001f0a1000000e8000180b00031408800ca
:10365c00204088004f067800cf0178004f01780099
:10366c000000060020480000656c00006c6f000034
:10367c00207700006f7200006c64000021200000b5
:10368c004c310000446500006d6f0000200000000c
:10369c002072000065630000746100006e6700001a
:1036ac006c650000732000000000000000000000aa
:1036bc00000000007f000000080000000608000069
:1036cc0002000000061000000200000006180000b6
:1036dc000200000006200000020000000628000086
:1036ec000200000006300000020000000638000056
:1036fc000200000006400000020000000648000026
:10370c0002000000065000000200000006580000f5
:10371c0002000000066000000200000006680000c5
:10372c000200000006700000020000000678000095
:10373c000200000006800000020000000688000065
:10374c000200000006900000020000000698000035
:10375c000200000006a000000200000006a8000005
:10376c000200000006b000000200000006b80000d5
:10377c000200000006c000000200000006c80000a5
:10378c000200000006d000000200000006d8000075
:10379c000200000006e000000200000006e8000045
:1037ac000200000006f000000200000006f8000015
:1037bc0002000000060000000300000006080000e4
:1037cc0003000000061000000300000006180000b3
:1037dc000300000006200000030000000628000083
:1037ec000300000006300000030000000638000053
:1037fc000300000006400000030000000648000023
:10380c0003000000065000000300000006580000f2
:10381c0003000000066000000300000006680000c2
:10382c000300000006700000030000000678000092
:10383c000300000006800000030000000688000062
:10384c000300000006900000030000000698000032
:10385c000300000006a000000300000006a8000002
:10386c000300000006b000000300000006b80000d2
:10387c000300000006c000000300000006c80000a2
:10388c000300000006d000000300000006d8000072
:10389c000300000006e000000300000006e8000042
:1038ac000300000006f000000300000006f8000012
:1038bc0003000000060000000400000006080000e1
:1038cc0004000000061000000400000006180000b0
:1038dc000400000006200000040000000628000080
:1038ec000400000006300000040000000638000050
:1038fc000400000006400000040000000648000020
:10390c0004000000065000000400000006580000ef
:10391c0004000000066000000400000006680000bf
:10392c00040000000670000004000000067800008f
:10393c00040000000680000004000000068800005f
:10394c00040000000690000004000000069800002f
:10395c000400000006a000000400000006a80000ff
:10396c000400000006b000000400000006b80000cf
:10397c000400000006c000000400000006c800009f
:10398c000400000006d000000400000006d800006f
:10399c000400000006e000000400000006e800003f
:1039ac000400000006f000000400000006f800000f
:1039bc0004000000060000000500000006080000de
:1039cc0005000000061000000500000006180000ad
:1039dc00050000000620000005000000062800007d
:1039ec00050000000630000005000000063800004d
:1039fc00050000000640000005000000064800001d
:103a0c0005000000065000000500000006580000ec
:103a1c0005000000066000000500000006680000bc
:103a2c00050000000670000005000000067800008c
:103a3c00050000000680000005000000068800005c
:103a4c00050000000690000005000000069800002c
:103a5c000500000006a000000500000006a80000fc
:103a6c000500000006b000000500000006b80000cc
:103a7c000500000006c000000500000006c800009c
:103a8c000500000006d000000500000006d800006c
:103a9c000500000006e000000500000006e800003c
:103aac000500000006f000000500000006f800000c
:103abc0005000000060000000600000000000000e9
:103acc000000000000000000000000001c220000ac
:103adc00362200002a2200001c0000001c3e0000c0
:103aec002a3e0000223e00001c00000000140000d2
:103afc003e3e00003e1c00000800000000080000d4
:103b0c001c3e00003e1c000008000000081c0000c9
:103b1c001c0800003e3e00000800000000080000e9
:103b2c001c3e00003e0800001c00000000000000cd
:103b3c000000000000000000000000000000000079
:103b4c000000000000000000000000000000000069
:103b5c000000000000000000000000000000000059
:103b6c000000000000000000000000000038000011
:103b7c00302c0000121200000c0000001c2200006f
:103b8c00221c0000081c00000800000000000000bf
:103b9c00000000000000000000000000302c0000bd
:103bac00342c00003436000006000000002a00000f
:103bbc001c3600001c2a000000000000040c000051
:103bcc001c3c00001c0c000004000000101800003d
:103bdc001c1e00001c18000010000000081c000037
:103bec003e0800003e1c00000800000014140000f9
:103bfc001414000014000000140000003c2a000003
:103c0c002a2c000028280000280000001c2200009c
:103c1c000c140000182200001c0000000000000022
:103c2c0000000000001e00001e000000081c000028
:103c3c003e0800003e1c0000081c0000081c000090
:103c4c003e080000080800000800000008080000fa
:103c5c00080800003e1c00000800000000080000de
:103c6c00183e0000180800000000000000080000ca
:103c7c000c3e00000c0800000000000000000000da
:103c8c0000020000020200003e00000000140000d0
:103c9c00143e00001414000000000000080800008e
:103cac001c1c00003e3e0000000000003e3e0000d8
:103cbc001c1c0000080800000000000000000000b0
:103ccc00000000000000000000000000081c0000c4
:103cdc001c08000008000000080000003636000038
:103cec0012000000000000000000000000140000a2
:103cfc003e140000143e000014000000041c0000e0
:103d0c00020c0000100e0000080000002626000027
:103d1c00100800000432000032000000040a000009
:103d2c000a0400002a1200002c0000000c0c0000f9
:103d3c000400000000000000000000000804000067
:103d4c000404000004040000080000000408000043
:103d5c00080800000808000004000000001400001f
:103d6c001c3e00001c1400000000000000080000b5
:103d7c00083e0000080800000000000000000000e1
:103d8c0000000000000c00000c040000000000000b
:103d9c00003e0000000000000000000000000000d9
:103dac0000000000000c00000c00000000200000cf
:103dbc001008000004020000000000001c2200009b
:103dcc00322a0000262200001c000000080c000013
:103ddc0008080000080800001c0000001c2200005d
:103dec0020180000040200003e0000001c2200000d
:103dfc00201c0000202200001c00000010180000f5
:103e0c00141200003e100000100000003e020000e2
:103e1c00021e0000202200001c00000018040000fc
:103e2c00021e0000222200001c0000003e200000a8
:103e3c001008000004040000040000001c22000014
:103e4c00221c0000222200001c0000001c2200008a
:103e5c00223c0000201000000c00000000000000bc
:103e6c000c0c0000000c00000c0000000000000016
:103e7c000c0c0000000c00000c04000010080000ea
:103e8c000402000004080000100000000000000004
:103e9c003e000000003e000000000000040800008e
:103eac001020000010080000040000001c2200007c
:103ebc002018000008000000080000001c22000070
:103ecc003a2a00003a0200001c0000001c220000ec
:103edc00222200003e220000220000001e220000d0
:103eec00221e0000222200001e0000001c220000e6
:103efc0002020000022200001c0000001e22000032
:103f0c0022220000222200001e0000003e020000bf
:103f1c00021e0000020200003e0000003e020000f3
:103f2c00021e000002020000020000001c22000021
:103f3c00023a0000222200003c0000002222000075
:103f4c00223e000022220000220000001c0800007b
:103f5c0008080000080800001c00000020200000d9
:103f6c0020200000222200001c0000002212000071
:103f7c000a0600000a1200002200000002020000e3
:103f8c0002020000020200003e0000002236000087
:103f9c002a2200002222000022000000222600001b
:103fac002a32000022220000220000001c22000005
:103fbc0022220000222200001c0000001e22000011
:103fcc00221e000002020000020000001c22000061
:103fdc00222200002a1200002c0000001e220000e9
:103fec00221e000012220000220000001c220000f1
:103ffc00021c0000202200001c0000003e080000f3
:10400c000808000008080000080000002222000038
:10401c0022220000222200001c00000022220000ac
:10402c0022220000221400000800000022220000be
:10403c002a2a00002a2a0000140000002222000074
:10404c0014080000142200002200000022220000ac
:10405c002214000008080000080000001e100000d8
:10406c0008040000020200001e0000001c040000f6
:10407c0004040000040400001c0000000002000006
:10408c000408000010200000000000001c100000bc
:10409c0010100000101000001c000000081400009c
:1040ac0022000000000000000000000000000000e2
:1040bc000000000000000000003f00000c0c00009d
:1040cc0008000000000000000000000000000000dc
:1040dc001c2000003c2200003c00000002020000fa
:1040ec001e220000222200001e0000000000000022
:1040fc001c220000022200001c00000020200000f6
:10410c003c220000222200003c00000000000000c5
:10411c001c2200001e0200001c00000018040000fd
:10412c00041e000004040000040000000000000055
:10413c003c220000223c0000201c00000202000077
:10414c000e12000012120000120000000800000005
:10415c00080800000808000018000000100000000b
:10416c001810000010100000120c000002020000d9
:10417c00120a0000060a00001200000008080000e5
:10418c0008080000080800001800000000000000eb
:10419c00162a00002a220000220000000000000065
:1041ac000e120000121200001200000000000000ad
:1041bc001c220000222200001c0000000000000055
:1041cc001e220000222200001e020000000000003f
:1041dc003c220000222200003c20000000000000d5
:1041ec001a240000040400000e000000000000006f
:1041fc001c0200001c2000001c0000000004000039
:10420c001e04000004140000080000000000000060
:10421c0012120000121a000014000000000000002e
:10422c002222000022140000080000000000000000
:10423c00222200002a3e00001400000000000000b2
:10424c00121200000c12000012000000000000000e
:10425c0012120000121c00000806000000000000f2
:10426c001e1000000c0200001e00000018040000cc
:10427c0004060000040400001800000008080000f8
:10428c000800000008080000080000000c100000e6
:10429c0010300000101000000c000000140a000088
:1042ac00000000000000000000000000081c0000de
:1042bc0036220000223e0000000000000200fa003e
:1042cc002b0007002d0007000002eb0014278800cc
:1042dc00cee2a800cce2a800c8e2a900cce2a9007a
:1042ec0004c42900040f7800000000001e027800ae
:1042fc0004f0a7000402ea000402ea004f22de00e8
:10430c00044278001e0fe900e04f5200f7ff3a001c
:10431c00cce2a80004c42900040f780000000000bf
:10432c001e02780004f0a7000402ea000402ea006e
:10433c004f22de00044278001e0fe900e04f5200cd
:10434c00f7ff3a00b6fb0700040078000080fa0083
:04435c000000060057
:020000040000fa
:10436000000800001006000080000000005c000053
:0c437000002c0000800000000000000095
:020000040000fa
:10437c000000fa000080fa00000006000000fa00bd
:08438c000080fa0000000600a9
:020000040000fa
:020000040005f5
:0457f400ffec0000c6
:020000040000fa
:020000040005f5
:0457f800be9b000054
:020000040000fa
:020000040005f5
:0457fc007f3f0000eb
:00000001FF
